{
  "_format": "hh-sol-artifact-1",
  "contractName": "MyEpicNFT",
  "sourceName": "contracts/MyEpicNFT.sol",
  "abi": [
    {
      "inputs": [],
      "stateMutability": "nonpayable",
      "type": "constructor"
    },
    {
      "anonymous": false,
      "inputs": [
        {
          "indexed": true,
          "internalType": "address",
          "name": "owner",
          "type": "address"
        },
        {
          "indexed": true,
          "internalType": "address",
          "name": "approved",
          "type": "address"
        },
        {
          "indexed": true,
          "internalType": "uint256",
          "name": "tokenId",
          "type": "uint256"
        }
      ],
      "name": "Approval",
      "type": "event"
    },
    {
      "anonymous": false,
      "inputs": [
        {
          "indexed": true,
          "internalType": "address",
          "name": "owner",
          "type": "address"
        },
        {
          "indexed": true,
          "internalType": "address",
          "name": "operator",
          "type": "address"
        },
        {
          "indexed": false,
          "internalType": "bool",
          "name": "approved",
          "type": "bool"
        }
      ],
      "name": "ApprovalForAll",
      "type": "event"
    },
    {
      "anonymous": false,
      "inputs": [
        {
          "indexed": false,
          "internalType": "address",
          "name": "sender",
          "type": "address"
        },
        {
          "indexed": false,
          "internalType": "uint256",
          "name": "tokenId",
          "type": "uint256"
        }
      ],
      "name": "NewEpicNFTMinted",
      "type": "event"
    },
    {
      "anonymous": false,
      "inputs": [
        {
          "indexed": true,
          "internalType": "address",
          "name": "from",
          "type": "address"
        },
        {
          "indexed": true,
          "internalType": "address",
          "name": "to",
          "type": "address"
        },
        {
          "indexed": true,
          "internalType": "uint256",
          "name": "tokenId",
          "type": "uint256"
        }
      ],
      "name": "Transfer",
      "type": "event"
    },
    {
      "inputs": [
        {
          "internalType": "address",
          "name": "to",
          "type": "address"
        },
        {
          "internalType": "uint256",
          "name": "tokenId",
          "type": "uint256"
        }
      ],
      "name": "approve",
      "outputs": [],
      "stateMutability": "nonpayable",
      "type": "function"
    },
    {
      "inputs": [
        {
          "internalType": "address",
          "name": "owner",
          "type": "address"
        }
      ],
      "name": "balanceOf",
      "outputs": [
        {
          "internalType": "uint256",
          "name": "",
          "type": "uint256"
        }
      ],
      "stateMutability": "view",
      "type": "function"
    },
    {
      "inputs": [
        {
          "internalType": "uint256",
          "name": "tokenId",
          "type": "uint256"
        }
      ],
      "name": "getApproved",
      "outputs": [
        {
          "internalType": "address",
          "name": "",
          "type": "address"
        }
      ],
      "stateMutability": "view",
      "type": "function"
    },
    {
      "inputs": [],
      "name": "getTotalNFtsMinted",
      "outputs": [
        {
          "internalType": "uint256",
          "name": "",
          "type": "uint256"
        }
      ],
      "stateMutability": "view",
      "type": "function"
    },
    {
      "inputs": [
        {
          "internalType": "address",
          "name": "owner",
          "type": "address"
        },
        {
          "internalType": "address",
          "name": "operator",
          "type": "address"
        }
      ],
      "name": "isApprovedForAll",
      "outputs": [
        {
          "internalType": "bool",
          "name": "",
          "type": "bool"
        }
      ],
      "stateMutability": "view",
      "type": "function"
    },
    {
      "inputs": [],
      "name": "makeAnEpicNFT",
      "outputs": [],
      "stateMutability": "nonpayable",
      "type": "function"
    },
    {
      "inputs": [],
      "name": "name",
      "outputs": [
        {
          "internalType": "string",
          "name": "",
          "type": "string"
        }
      ],
      "stateMutability": "view",
      "type": "function"
    },
    {
      "inputs": [
        {
          "internalType": "uint256",
          "name": "tokenId",
          "type": "uint256"
        }
      ],
      "name": "ownerOf",
      "outputs": [
        {
          "internalType": "address",
          "name": "",
          "type": "address"
        }
      ],
      "stateMutability": "view",
      "type": "function"
    },
    {
      "inputs": [
        {
          "internalType": "uint256",
          "name": "tokenId",
          "type": "uint256"
        }
      ],
      "name": "pickRandomColor",
      "outputs": [
        {
          "internalType": "string",
          "name": "",
          "type": "string"
        }
      ],
      "stateMutability": "view",
      "type": "function"
    },
    {
      "inputs": [
        {
          "internalType": "uint256",
          "name": "tokenId",
          "type": "uint256"
        }
      ],
      "name": "pickRandomFirstWord",
      "outputs": [
        {
          "internalType": "string",
          "name": "",
          "type": "string"
        }
      ],
      "stateMutability": "view",
      "type": "function"
    },
    {
      "inputs": [
        {
          "internalType": "uint256",
          "name": "tokenId",
          "type": "uint256"
        }
      ],
      "name": "pickRandomSecondWord",
      "outputs": [
        {
          "internalType": "string",
          "name": "",
          "type": "string"
        }
      ],
      "stateMutability": "view",
      "type": "function"
    },
    {
      "inputs": [
        {
          "internalType": "uint256",
          "name": "tokenId",
          "type": "uint256"
        }
      ],
      "name": "pickRandomThirdWord",
      "outputs": [
        {
          "internalType": "string",
          "name": "",
          "type": "string"
        }
      ],
      "stateMutability": "view",
      "type": "function"
    },
    {
      "inputs": [
        {
          "internalType": "address",
          "name": "from",
          "type": "address"
        },
        {
          "internalType": "address",
          "name": "to",
          "type": "address"
        },
        {
          "internalType": "uint256",
          "name": "tokenId",
          "type": "uint256"
        }
      ],
      "name": "safeTransferFrom",
      "outputs": [],
      "stateMutability": "nonpayable",
      "type": "function"
    },
    {
      "inputs": [
        {
          "internalType": "address",
          "name": "from",
          "type": "address"
        },
        {
          "internalType": "address",
          "name": "to",
          "type": "address"
        },
        {
          "internalType": "uint256",
          "name": "tokenId",
          "type": "uint256"
        },
        {
          "internalType": "bytes",
          "name": "_data",
          "type": "bytes"
        }
      ],
      "name": "safeTransferFrom",
      "outputs": [],
      "stateMutability": "nonpayable",
      "type": "function"
    },
    {
      "inputs": [
        {
          "internalType": "address",
          "name": "operator",
          "type": "address"
        },
        {
          "internalType": "bool",
          "name": "approved",
          "type": "bool"
        }
      ],
      "name": "setApprovalForAll",
      "outputs": [],
      "stateMutability": "nonpayable",
      "type": "function"
    },
    {
      "inputs": [
        {
          "internalType": "bytes4",
          "name": "interfaceId",
          "type": "bytes4"
        }
      ],
      "name": "supportsInterface",
      "outputs": [
        {
          "internalType": "bool",
          "name": "",
          "type": "bool"
        }
      ],
      "stateMutability": "view",
      "type": "function"
    },
    {
      "inputs": [],
      "name": "symbol",
      "outputs": [
        {
          "internalType": "string",
          "name": "",
          "type": "string"
        }
      ],
      "stateMutability": "view",
      "type": "function"
    },
    {
      "inputs": [
        {
          "internalType": "uint256",
          "name": "tokenId",
          "type": "uint256"
        }
      ],
      "name": "tokenURI",
      "outputs": [
        {
          "internalType": "string",
          "name": "",
          "type": "string"
        }
      ],
      "stateMutability": "view",
      "type": "function"
    },
    {
      "inputs": [
        {
          "internalType": "address",
          "name": "from",
          "type": "address"
        },
        {
          "internalType": "address",
          "name": "to",
          "type": "address"
        },
        {
          "internalType": "uint256",
          "name": "tokenId",
          "type": "uint256"
        }
      ],
      "name": "transferFrom",
      "outputs": [],
      "stateMutability": "nonpayable",
      "type": "function"
    }
  ],
  "bytecode": "0x608060405260405180610100016040528060d381526020016200458e60d3913960089080519060200190620000369291906200082c565b50604051806080016040528060568152602001620046616056913960099080519060200190620000689291906200082c565b506040518060c001604052806040518060400160405280600381526020017f686970000000000000000000000000000000000000000000000000000000000081525081526020016040518060400160405280600581526020017f737472617000000000000000000000000000000000000000000000000000000081525081526020016040518060400160405280600681526020017f6a756e676c65000000000000000000000000000000000000000000000000000081525081526020016040518060400160405280600681526020017f6566666c7578000000000000000000000000000000000000000000000000000081525081526020016040518060400160405280600681526020017f6578656d7074000000000000000000000000000000000000000000000000000081525081526020016040518060400160405280600681526020017f6163636570740000000000000000000000000000000000000000000000000000815250815250600a906006620001e6929190620008bd565b506040518060c001604052806040518060400160405280600581526020017f666569676e00000000000000000000000000000000000000000000000000000081525081526020016040518060400160405280600681526020017f756e69717565000000000000000000000000000000000000000000000000000081525081526020016040518060400160405280600581526020017f737465616d00000000000000000000000000000000000000000000000000000081525081526020016040518060400160405280600381526020017f6d616e000000000000000000000000000000000000000000000000000000000081525081526020016040518060400160405280600681526020017f647261676f6e000000000000000000000000000000000000000000000000000081525081526020016040518060400160405280600581526020017f72616e6765000000000000000000000000000000000000000000000000000000815250815250600b90600662000364929190620008bd565b506040518060c001604052806040518060400160405280600681526020017f64656e69616c000000000000000000000000000000000000000000000000000081525081526020016040518060400160405280600481526020017f64616d6e0000000000000000000000000000000000000000000000000000000081525081526020016040518060400160405280600481526020017f6865616c0000000000000000000000000000000000000000000000000000000081525081526020016040518060400160405280600581526020017f706c75636b00000000000000000000000000000000000000000000000000000081525081526020016040518060400160405280600581526020017f637265656400000000000000000000000000000000000000000000000000000081525081526020016040518060400160405280600681526020017f6f70706f73650000000000000000000000000000000000000000000000000000815250815250600c906006620004e2929190620008bd565b506040518060c001604052806040518060400160405280600381526020017f726564000000000000000000000000000000000000000000000000000000000081525081526020016040518060400160405280600781526020017f233038433241380000000000000000000000000000000000000000000000000081525081526020016040518060400160405280600581526020017f626c61636b00000000000000000000000000000000000000000000000000000081525081526020016040518060400160405280600681526020017f79656c6c6f77000000000000000000000000000000000000000000000000000081525081526020016040518060400160405280600481526020017f626c75650000000000000000000000000000000000000000000000000000000081525081526020016040518060400160405280600581526020017f677265656e000000000000000000000000000000000000000000000000000000815250815250600d90600662000660929190620008bd565b503480156200066e57600080fd5b506040518060400160405280600981526020017f5371756172654e465400000000000000000000000000000000000000000000008152506040518060400160405280600681526020017f53515541524500000000000000000000000000000000000000000000000000008152508160009080519060200190620006f39291906200082c565b5080600190805190602001906200070c9291906200082c565b5050506200075a6040518060400160405280601e81526020017f54686973206973206d79204e465420636f6e74726163742e20576f61682100008152506200076060201b620013e51760201c565b62000ade565b6200080081604051602401620007779190620009f2565b6040516020818303038152906040527f41304fac000000000000000000000000000000000000000000000000000000007bffffffffffffffffffffffffffffffffffffffffffffffffffffffff19166020820180517bffffffffffffffffffffffffffffffffffffffffffffffffffffffff83818316178352505050506200080360201b60201c565b50565b60008151905060006a636f6e736f6c652e6c6f679050602083016000808483855afa5050505050565b8280546200083a9062000a68565b90600052602060002090601f0160209004810192826200085e5760008555620008aa565b82601f106200087957805160ff1916838001178555620008aa565b82800160010185558215620008aa579182015b82811115620008a95782518255916020019190600101906200088c565b5b509050620008b9919062000924565b5090565b82805482825590600052602060002090810192821562000911579160200282015b8281111562000910578251829080519060200190620008ff9291906200082c565b5091602001919060010190620008de565b5b50905062000920919062000943565b5090565b5b808211156200093f57600081600090555060010162000925565b5090565b5b808211156200096757600081816200095d91906200096b565b5060010162000944565b5090565b508054620009799062000a68565b6000825580601f106200098d5750620009ae565b601f016020900490600052602060002090810190620009ad919062000924565b5b50565b6000620009be8262000a16565b620009ca818562000a21565b9350620009dc81856020860162000a32565b620009e78162000acd565b840191505092915050565b6000602082019050818103600083015262000a0e8184620009b1565b905092915050565b600081519050919050565b600082825260208201905092915050565b60005b8381101562000a5257808201518184015260208101905062000a35565b8381111562000a62576000848401525b50505050565b6000600282049050600182168062000a8157607f821691505b6020821081141562000a985762000a9762000a9e565b5b50919050565b7f4e487b7100000000000000000000000000000000000000000000000000000000600052602260045260246000fd5b6000601f19601f8301169050919050565b613aa08062000aee6000396000f3fe608060405234801561001057600080fd5b50600436106101215760003560e01c80636352211e116100ad578063b88d4fde11610071578063b88d4fde14610340578063c575757a1461035c578063c87b56dd1461038c578063de9d132f146103bc578063e985e9c5146103c657610121565b80636352211e1461027657806370a08231146102a657806395d89b41146102d6578063a22cb465146102f4578063b187301f1461031057610121565b806323b872dd116100f457806323b872dd146101c05780632de38d68146101dc5780632f75b26d1461020c57806342842e0e1461022a578063514dc8c61461024657610121565b806301ffc9a71461012657806306fdde0314610156578063081812fc14610174578063095ea7b3146101a4575b600080fd5b610140600480360381019061013b9190612678565b6103f6565b60405161014d9190613316565b60405180910390f35b61015e6104d8565b60405161016b9190613331565b60405180910390f35b61018e600480360381019061018991906126ca565b61056a565b60405161019b9190613286565b60405180910390f35b6101be60048036038101906101b9919061263c565b6105ef565b005b6101da60048036038101906101d59190612536565b610707565b005b6101f660048036038101906101f191906126ca565b610767565b6040516102039190613331565b60405180910390f35b610214610885565b6040516102219190613591565b60405180910390f35b610244600480360381019061023f9190612536565b610896565b005b610260600480360381019061025b91906126ca565b6108b6565b60405161026d9190613331565b60405180910390f35b610290600480360381019061028b91906126ca565b6109d4565b60405161029d9190613286565b60405180910390f35b6102c060048036038101906102bb91906124d1565b610a86565b6040516102cd9190613591565b60405180910390f35b6102de610b3e565b6040516102eb9190613331565b60405180910390f35b61030e60048036038101906103099190612600565b610bd0565b005b61032a600480360381019061032591906126ca565b610d51565b6040516103379190613331565b60405180910390f35b61035a60048036038101906103559190612585565b610e6f565b005b610376600480360381019061037191906126ca565b610ed1565b6040516103839190613331565b60405180910390f35b6103a660048036038101906103a191906126ca565b610fef565b6040516103b39190613331565b60405180910390f35b6103c4611141565b005b6103e060048036038101906103db91906124fa565b611351565b6040516103ed9190613316565b60405180910390f35b60007f80ac58cd000000000000000000000000000000000000000000000000000000007bffffffffffffffffffffffffffffffffffffffffffffffffffffffff1916827bffffffffffffffffffffffffffffffffffffffffffffffffffffffff191614806104c157507f5b5e139f000000000000000000000000000000000000000000000000000000007bffffffffffffffffffffffffffffffffffffffffffffffffffffffff1916827bffffffffffffffffffffffffffffffffffffffffffffffffffffffff1916145b806104d157506104d08261147e565b5b9050919050565b6060600080546104e790613830565b80601f016020809104026020016040519081016040528092919081815260200182805461051390613830565b80156105605780601f1061053557610100808354040283529160200191610560565b820191906000526020600020905b81548152906001019060200180831161054357829003601f168201915b5050505050905090565b6000610575826114e8565b6105b4576040517f08c379a00000000000000000000000000000000000000000000000000000000081526004016105ab906134f1565b60405180910390fd5b6004600083815260200190815260200160002060009054906101000a900473ffffffffffffffffffffffffffffffffffffffff169050919050565b60006105fa826109d4565b90508073ffffffffffffffffffffffffffffffffffffffff168373ffffffffffffffffffffffffffffffffffffffff16141561066b576040517f08c379a000000000000000000000000000000000000000000000000000000000815260040161066290613551565b60405180910390fd5b8073ffffffffffffffffffffffffffffffffffffffff1661068a611554565b73ffffffffffffffffffffffffffffffffffffffff1614806106b957506106b8816106b3611554565b611351565b5b6106f8576040517f08c379a00000000000000000000000000000000000000000000000000000000081526004016106ef90613431565b60405180910390fd5b610702838361155c565b505050565b610718610712611554565b82611615565b610757576040517f08c379a000000000000000000000000000000000000000000000000000000000815260040161074e90613571565b60405180910390fd5b6107628383836116f3565b505050565b6060600061079b6107778461194f565b6040516020016107879190613220565b604051602081830303815290604052611afc565b9050600a80549050816107ae91906138ab565b9050600a81815481106107ea577f4e487b7100000000000000000000000000000000000000000000000000000000600052603260045260246000fd5b9060005260206000200180546107ff90613830565b80601f016020809104026020016040519081016040528092919081815260200182805461082b90613830565b80156108785780601f1061084d57610100808354040283529160200191610878565b820191906000526020600020905b81548152906001019060200180831161085b57829003601f168201915b5050505050915050919050565b60006108916007611b2f565b905090565b6108b183838360405180602001604052806000815250610e6f565b505050565b606060006108ea6108c68461194f565b6040516020016108d69190613264565b604051602081830303815290604052611afc565b9050600d80549050816108fd91906138ab565b9050600d8181548110610939577f4e487b7100000000000000000000000000000000000000000000000000000000600052603260045260246000fd5b90600052602060002001805461094e90613830565b80601f016020809104026020016040519081016040528092919081815260200182805461097a90613830565b80156109c75780601f1061099c576101008083540402835291602001916109c7565b820191906000526020600020905b8154815290600101906020018083116109aa57829003601f168201915b5050505050915050919050565b6000806002600084815260200190815260200160002060009054906101000a900473ffffffffffffffffffffffffffffffffffffffff169050600073ffffffffffffffffffffffffffffffffffffffff168173ffffffffffffffffffffffffffffffffffffffff161415610a7d576040517f08c379a0000000000000000000000000000000000000000000000000000000008152600401610a7490613471565b60405180910390fd5b80915050919050565b60008073ffffffffffffffffffffffffffffffffffffffff168273ffffffffffffffffffffffffffffffffffffffff161415610af7576040517f08c379a0000000000000000000000000000000000000000000000000000000008152600401610aee90613451565b60405180910390fd5b600360008373ffffffffffffffffffffffffffffffffffffffff1673ffffffffffffffffffffffffffffffffffffffff168152602001908152602001600020549050919050565b606060018054610b4d90613830565b80601f0160208091040260200160405190810160405280929190818152602001828054610b7990613830565b8015610bc65780601f10610b9b57610100808354040283529160200191610bc6565b820191906000526020600020905b815481529060010190602001808311610ba957829003601f168201915b5050505050905090565b610bd8611554565b73ffffffffffffffffffffffffffffffffffffffff168273ffffffffffffffffffffffffffffffffffffffff161415610c46576040517f08c379a0000000000000000000000000000000000000000000000000000000008152600401610c3d906133f1565b60405180910390fd5b8060056000610c53611554565b73ffffffffffffffffffffffffffffffffffffffff1673ffffffffffffffffffffffffffffffffffffffff16815260200190815260200160002060008473ffffffffffffffffffffffffffffffffffffffff1673ffffffffffffffffffffffffffffffffffffffff16815260200190815260200160002060006101000a81548160ff0219169083151502179055508173ffffffffffffffffffffffffffffffffffffffff16610d00611554565b73ffffffffffffffffffffffffffffffffffffffff167f17307eab39ab6107e8899845ad3d59bd9653f200f220920489ca2b5937696c3183604051610d459190613316565b60405180910390a35050565b60606000610d85610d618461194f565b604051602001610d7191906131b9565b604051602081830303815290604052611afc565b9050600b8054905081610d9891906138ab565b9050600b8181548110610dd4577f4e487b7100000000000000000000000000000000000000000000000000000000600052603260045260246000fd5b906000526020600020018054610de990613830565b80601f0160208091040260200160405190810160405280929190818152602001828054610e1590613830565b8015610e625780601f10610e3757610100808354040283529160200191610e62565b820191906000526020600020905b815481529060010190602001808311610e4557829003601f168201915b5050505050915050919050565b610e80610e7a611554565b83611615565b610ebf576040517f08c379a0000000000000000000000000000000000000000000000000000000008152600401610eb690613571565b60405180910390fd5b610ecb84848484611b3d565b50505050565b60606000610f05610ee18461194f565b604051602001610ef19190613197565b604051602081830303815290604052611afc565b9050600c8054905081610f1891906138ab565b9050600c8181548110610f54577f4e487b7100000000000000000000000000000000000000000000000000000000600052603260045260246000fd5b906000526020600020018054610f6990613830565b80601f0160208091040260200160405190810160405280929190818152602001828054610f9590613830565b8015610fe25780601f10610fb757610100808354040283529160200191610fe2565b820191906000526020600020905b815481529060010190602001808311610fc557829003601f168201915b5050505050915050919050565b6060610ffa826114e8565b611039576040517f08c379a0000000000000000000000000000000000000000000000000000000008152600401611030906134d1565b60405180910390fd5b600060066000848152602001908152602001600020805461105990613830565b80601f016020809104026020016040519081016040528092919081815260200182805461108590613830565b80156110d25780601f106110a7576101008083540402835291602001916110d2565b820191906000526020600020905b8154815290600101906020018083116110b557829003601f168201915b5050505050905060006110e3611b99565b90506000815114156110f957819250505061113c565b60008251111561112e5780826040516020016111169291906130f9565b6040516020818303038152906040529250505061113c565b61113784611bb0565b925050505b919050565b603261114d6007611b2f565b1061115757600080fd5b60006111636007611b2f565b9050600061117082610767565b9050600061117d83610d51565b9050600061118a84610ed1565b905060008383836040516020016111a39392919061311d565b604051602081830303815290604052905060006111bf866108b6565b905060006008826009856040516020016111dc949392919061314e565b60405160208183030381529060405290506000611221846111fc84611c57565b60405160200161120d9291906131db565b604051602081830303815290604052611c57565b90506000816040516020016112369190613242565b60405160208183030381529060405290506112856040518060400160405280601581526020017f0a2d2d2d2d2d2d2d2d2d2d2d2d2d2d2d2d2d2d2d2d00000000000000000000008152506113e5565b61128e816113e5565b6112cc6040518060400160405280601581526020017f2d2d2d2d2d2d2d2d2d2d2d2d2d2d2d2d2d2d2d2d0a00000000000000000000008152506113e5565b6112d6338a611e15565b6112e08982611e33565b6112ea6007611ea7565b61130d604051806060016040528060258152602001613a06602591398a33611ebd565b7febb98688741ffa4c7589bf325de30cf7becb63de567842e1ccdb6cb949fdc82c338a60405161133e9291906132ed565b60405180910390a1505050505050505050565b6000600560008473ffffffffffffffffffffffffffffffffffffffff1673ffffffffffffffffffffffffffffffffffffffff16815260200190815260200160002060008373ffffffffffffffffffffffffffffffffffffffff1673ffffffffffffffffffffffffffffffffffffffff16815260200190815260200160002060009054906101000a900460ff16905092915050565b61147b816040516024016113f99190613331565b6040516020818303038152906040527f41304fac000000000000000000000000000000000000000000000000000000007bffffffffffffffffffffffffffffffffffffffffffffffffffffffff19166020820180517bffffffffffffffffffffffffffffffffffffffffffffffffffffffff8381831617835250505050611f5c565b50565b60007f01ffc9a7000000000000000000000000000000000000000000000000000000007bffffffffffffffffffffffffffffffffffffffffffffffffffffffff1916827bffffffffffffffffffffffffffffffffffffffffffffffffffffffff1916149050919050565b60008073ffffffffffffffffffffffffffffffffffffffff166002600084815260200190815260200160002060009054906101000a900473ffffffffffffffffffffffffffffffffffffffff1673ffffffffffffffffffffffffffffffffffffffff1614159050919050565b600033905090565b816004600083815260200190815260200160002060006101000a81548173ffffffffffffffffffffffffffffffffffffffff021916908373ffffffffffffffffffffffffffffffffffffffff160217905550808273ffffffffffffffffffffffffffffffffffffffff166115cf836109d4565b73ffffffffffffffffffffffffffffffffffffffff167f8c5be1e5ebec7d5bd14f71427d1e84f3dd0314c0f7b2291e5b200ac8c7c3b92560405160405180910390a45050565b6000611620826114e8565b61165f576040517f08c379a000000000000000000000000000000000000000000000000000000000815260040161165690613411565b60405180910390fd5b600061166a836109d4565b90508073ffffffffffffffffffffffffffffffffffffffff168473ffffffffffffffffffffffffffffffffffffffff1614806116d957508373ffffffffffffffffffffffffffffffffffffffff166116c18461056a565b73ffffffffffffffffffffffffffffffffffffffff16145b806116ea57506116e98185611351565b5b91505092915050565b8273ffffffffffffffffffffffffffffffffffffffff16611713826109d4565b73ffffffffffffffffffffffffffffffffffffffff1614611769576040517f08c379a000000000000000000000000000000000000000000000000000000000815260040161176090613511565b60405180910390fd5b600073ffffffffffffffffffffffffffffffffffffffff168273ffffffffffffffffffffffffffffffffffffffff1614156117d9576040517f08c379a00000000000000000000000000000000000000000000000000000000081526004016117d0906133d1565b60405180910390fd5b6117e4838383611f85565b6117ef60008261155c565b6001600360008573ffffffffffffffffffffffffffffffffffffffff1673ffffffffffffffffffffffffffffffffffffffff168152602001908152602001600020600082825461183f9190613746565b925050819055506001600360008473ffffffffffffffffffffffffffffffffffffffff1673ffffffffffffffffffffffffffffffffffffffff16815260200190815260200160002060008282546118969190613665565b92505081905550816002600083815260200190815260200160002060006101000a81548173ffffffffffffffffffffffffffffffffffffffff021916908373ffffffffffffffffffffffffffffffffffffffff160217905550808273ffffffffffffffffffffffffffffffffffffffff168473ffffffffffffffffffffffffffffffffffffffff167fddf252ad1be2c89b69c2b068fc378daa952ba7f163c4a11628f55a4df523b3ef60405160405180910390a4505050565b60606000821415611997576040518060400160405280600181526020017f30000000000000000000000000000000000000000000000000000000000000008152509050611af7565b600082905060005b600082146119c95780806119b290613862565b915050600a826119c291906136bb565b915061199f565b60008167ffffffffffffffff811115611a0b577f4e487b7100000000000000000000000000000000000000000000000000000000600052604160045260246000fd5b6040519080825280601f01601f191660200182016040528015611a3d5781602001600182028036833780820191505090505b5090505b60008514611af057600182611a569190613746565b9150600a85611a6591906138ab565b6030611a719190613665565b60f81b818381518110611aad577f4e487b7100000000000000000000000000000000000000000000000000000000600052603260045260246000fd5b60200101907effffffffffffffffffffffffffffffffffffffffffffffffffffffffffffff1916908160001a905350600a85611ae991906136bb565b9450611a41565b8093505050505b919050565b600081604051602001611b0f91906130e2565b6040516020818303038152906040528051906020012060001c9050919050565b600081600001549050919050565b611b488484846116f3565b611b5484848484611f8a565b611b93576040517f08c379a0000000000000000000000000000000000000000000000000000000008152600401611b8a90613391565b60405180910390fd5b50505050565b606060405180602001604052806000815250905090565b6060611bbb826114e8565b611bfa576040517f08c379a0000000000000000000000000000000000000000000000000000000008152600401611bf190613531565b60405180910390fd5b6000611c04611b99565b90506000815111611c245760405180602001604052806000815250611c4f565b80611c2e8461194f565b604051602001611c3f9291906130f9565b6040516020818303038152906040525b915050919050565b60606000825190506000811415611c805760405180602001604052806000815250915050611e10565b60006003600283611c919190613665565b611c9b91906136bb565b6004611ca791906136ec565b90506000602082611cb89190613665565b67ffffffffffffffff811115611cf7577f4e487b7100000000000000000000000000000000000000000000000000000000600052604160045260246000fd5b6040519080825280601f01601f191660200182016040528015611d295781602001600182028036833780820191505090505b5090506000604051806060016040528060408152602001613a2b604091399050600181016020830160005b86811015611dcd5760038101905062ffffff818a015116603f8160121c168401518060081b905060ff603f83600c1c1686015116810190508060081b905060ff603f8360061c1686015116810190508060081b905060ff603f831686015116810190508060e01b90508084526004840193505050611d54565b506003860660018114611de75760028114611df757611e02565b613d3d60f01b6002830352611e02565b603d60f81b60018303525b508484525050819450505050505b919050565b611e2f828260405180602001604052806000815250612121565b5050565b611e3c826114e8565b611e7b576040517f08c379a0000000000000000000000000000000000000000000000000000000008152600401611e7290613491565b60405180910390fd5b80600660008481526020019081526020016000209080519060200190611ea292919061235d565b505050565b6001816000016000828254019250508190555050565b611f57838383604051602401611ed593929190613353565b6040516020818303038152906040527fe3849f79000000000000000000000000000000000000000000000000000000007bffffffffffffffffffffffffffffffffffffffffffffffffffffffff19166020820180517bffffffffffffffffffffffffffffffffffffffffffffffffffffffff8381831617835250505050611f5c565b505050565b60008151905060006a636f6e736f6c652e6c6f679050602083016000808483855afa5050505050565b505050565b6000611fab8473ffffffffffffffffffffffffffffffffffffffff1661217c565b15612114578373ffffffffffffffffffffffffffffffffffffffff1663150b7a02611fd4611554565b8786866040518563ffffffff1660e01b8152600401611ff694939291906132a1565b602060405180830381600087803b15801561201057600080fd5b505af192505050801561204157506040513d601f19601f8201168201806040525081019061203e91906126a1565b60015b6120c4573d8060008114612071576040519150601f19603f3d011682016040523d82523d6000602084013e612076565b606091505b506000815114156120bc576040517f08c379a00000000000000000000000000000000000000000000000000000000081526004016120b390613391565b60405180910390fd5b805181602001fd5b63150b7a0260e01b7bffffffffffffffffffffffffffffffffffffffffffffffffffffffff1916817bffffffffffffffffffffffffffffffffffffffffffffffffffffffff191614915050612119565b600190505b949350505050565b61212b838361218f565b6121386000848484611f8a565b612177576040517f08c379a000000000000000000000000000000000000000000000000000000000815260040161216e90613391565b60405180910390fd5b505050565b600080823b905060008111915050919050565b600073ffffffffffffffffffffffffffffffffffffffff168273ffffffffffffffffffffffffffffffffffffffff1614156121ff576040517f08c379a00000000000000000000000000000000000000000000000000000000081526004016121f6906134b1565b60405180910390fd5b612208816114e8565b15612248576040517f08c379a000000000000000000000000000000000000000000000000000000000815260040161223f906133b1565b60405180910390fd5b61225460008383611f85565b6001600360008473ffffffffffffffffffffffffffffffffffffffff1673ffffffffffffffffffffffffffffffffffffffff16815260200190815260200160002060008282546122a49190613665565b92505081905550816002600083815260200190815260200160002060006101000a81548173ffffffffffffffffffffffffffffffffffffffff021916908373ffffffffffffffffffffffffffffffffffffffff160217905550808273ffffffffffffffffffffffffffffffffffffffff16600073ffffffffffffffffffffffffffffffffffffffff167fddf252ad1be2c89b69c2b068fc378daa952ba7f163c4a11628f55a4df523b3ef60405160405180910390a45050565b82805461236990613830565b90600052602060002090601f01602090048101928261238b57600085556123d2565b82601f106123a457805160ff19168380011785556123d2565b828001600101855582156123d2579182015b828111156123d15782518255916020019190600101906123b6565b5b5090506123df91906123e3565b5090565b5b808211156123fc5760008160009055506001016123e4565b5090565b600061241361240e846135dd565b6135ac565b90508281526020810184848401111561242b57600080fd5b6124368482856137ee565b509392505050565b60008135905061244d816139a9565b92915050565b600081359050612462816139c0565b92915050565b600081359050612477816139d7565b92915050565b60008151905061248c816139d7565b92915050565b600082601f8301126124a357600080fd5b81356124b3848260208601612400565b91505092915050565b6000813590506124cb816139ee565b92915050565b6000602082840312156124e357600080fd5b60006124f18482850161243e565b91505092915050565b6000806040838503121561250d57600080fd5b600061251b8582860161243e565b925050602061252c8582860161243e565b9150509250929050565b60008060006060848603121561254b57600080fd5b60006125598682870161243e565b935050602061256a8682870161243e565b925050604061257b868287016124bc565b9150509250925092565b6000806000806080858703121561259b57600080fd5b60006125a98782880161243e565b94505060206125ba8782880161243e565b93505060406125cb878288016124bc565b925050606085013567ffffffffffffffff8111156125e857600080fd5b6125f487828801612492565b91505092959194509250565b6000806040838503121561261357600080fd5b60006126218582860161243e565b925050602061263285828601612453565b9150509250929050565b6000806040838503121561264f57600080fd5b600061265d8582860161243e565b925050602061266e858286016124bc565b9150509250929050565b60006020828403121561268a57600080fd5b600061269884828501612468565b91505092915050565b6000602082840312156126b357600080fd5b60006126c18482850161247d565b91505092915050565b6000602082840312156126dc57600080fd5b60006126ea848285016124bc565b91505092915050565b6126fc8161377a565b82525050565b61270b8161378c565b82525050565b600061271c82613622565b6127268185613638565b93506127368185602086016137fd565b61273f81613998565b840191505092915050565b60006127558261362d565b61275f8185613649565b935061276f8185602086016137fd565b61277881613998565b840191505092915050565b600061278e8261362d565b612798818561365a565b93506127a88185602086016137fd565b80840191505092915050565b600081546127c181613830565b6127cb818661365a565b945060018216600081146127e657600181146127f75761282a565b60ff1983168652818601935061282a565b6128008561360d565b60005b8381101561282257815481890152600182019150602081019050612803565b838801955050505b50505092915050565b6000612840603283613649565b91507f4552433732313a207472616e7366657220746f206e6f6e20455243373231526560008301527f63656976657220696d706c656d656e74657200000000000000000000000000006020830152604082019050919050565b60006128a6601c83613649565b91507f4552433732313a20746f6b656e20616c7265616479206d696e746564000000006000830152602082019050919050565b60006128e6600a8361365a565b91507f54484952445f574f5244000000000000000000000000000000000000000000006000830152600a82019050919050565b6000612926602483613649565b91507f4552433732313a207472616e7366657220746f20746865207a65726f2061646460008301527f72657373000000000000000000000000000000000000000000000000000000006020830152604082019050919050565b600061298c601983613649565b91507f4552433732313a20617070726f766520746f2063616c6c6572000000000000006000830152602082019050919050565b60006129cc60638361365a565b91507f222c20226465736372697074696f6e223a20224120686967686c79206163636c60008301527f61696d656420636f6c6c656374696f6e206f6620737175617265732e222c202260208301527f696d616765223a2022646174613a696d6167652f7376672b786d6c3b6261736560408301527f36342c00000000000000000000000000000000000000000000000000000000006060830152606382019050919050565b6000612a7e600b8361365a565b91507f5345434f4e445f574f52440000000000000000000000000000000000000000006000830152600b82019050919050565b6000612abe602c83613649565b91507f4552433732313a206f70657261746f7220717565727920666f72206e6f6e657860008301527f697374656e7420746f6b656e00000000000000000000000000000000000000006020830152604082019050919050565b6000612b24600d8361365a565b91507f3c2f746578743e3c2f7376673e000000000000000000000000000000000000006000830152600d82019050919050565b6000612b64603883613649565b91507f4552433732313a20617070726f76652063616c6c6572206973206e6f74206f7760008301527f6e6572206e6f7220617070726f76656420666f7220616c6c00000000000000006020830152604082019050919050565b6000612bca602a83613649565b91507f4552433732313a2062616c616e636520717565727920666f7220746865207a6560008301527f726f2061646472657373000000000000000000000000000000000000000000006020830152604082019050919050565b6000612c30602983613649565b91507f4552433732313a206f776e657220717565727920666f72206e6f6e657869737460008301527f656e7420746f6b656e00000000000000000000000000000000000000000000006020830152604082019050919050565b6000612c96602e83613649565b91507f45524337323155524953746f726167653a2055524920736574206f66206e6f6e60008301527f6578697374656e7420746f6b656e0000000000000000000000000000000000006020830152604082019050919050565b6000612cfc60028361365a565b91507f227d0000000000000000000000000000000000000000000000000000000000006000830152600282019050919050565b6000612d3c602083613649565b91507f4552433732313a206d696e7420746f20746865207a65726f20616464726573736000830152602082019050919050565b6000612d7c603183613649565b91507f45524337323155524953746f726167653a2055524920717565727920666f722060008301527f6e6f6e6578697374656e7420746f6b656e0000000000000000000000000000006020830152604082019050919050565b6000612de2602c83613649565b91507f4552433732313a20617070726f76656420717565727920666f72206e6f6e657860008301527f697374656e7420746f6b656e00000000000000000000000000000000000000006020830152604082019050919050565b6000612e48602983613649565b91507f4552433732313a207472616e73666572206f6620746f6b656e2074686174206960008301527f73206e6f74206f776e00000000000000000000000000000000000000000000006020830152604082019050919050565b6000612eae602f83613649565b91507f4552433732314d657461646174613a2055524920717565727920666f72206e6f60008301527f6e6578697374656e7420746f6b656e00000000000000000000000000000000006020830152604082019050919050565b6000612f14600a8361365a565b91507f7b226e616d65223a2022000000000000000000000000000000000000000000006000830152600a82019050919050565b6000612f54602183613649565b91507f4552433732313a20617070726f76616c20746f2063757272656e74206f776e6560008301527f72000000000000000000000000000000000000000000000000000000000000006020830152604082019050919050565b6000612fba600a8361365a565b91507f46495253545f574f5244000000000000000000000000000000000000000000006000830152600a82019050919050565b6000612ffa601d8361365a565b91507f646174613a6170706c69636174696f6e2f6a736f6e3b6261736536342c0000006000830152601d82019050919050565b600061303a603183613649565b91507f4552433732313a207472616e736665722063616c6c6572206973206e6f74206f60008301527f776e6572206e6f7220617070726f7665640000000000000000000000000000006020830152604082019050919050565b60006130a060058361365a565b91507f434f4c4f520000000000000000000000000000000000000000000000000000006000830152600582019050919050565b6130dc816137e4565b82525050565b60006130ee8284612783565b915081905092915050565b60006131058285612783565b91506131118284612783565b91508190509392505050565b60006131298286612783565b91506131358285612783565b91506131418284612783565b9150819050949350505050565b600061315a82876127b4565b91506131668286612783565b915061317282856127b4565b915061317e8284612783565b915061318982612b17565b915081905095945050505050565b60006131a2826128d9565b91506131ae8284612783565b915081905092915050565b60006131c482612a71565b91506131d08284612783565b915081905092915050565b60006131e682612f07565b91506131f28285612783565b91506131fd826129bf565b91506132098284612783565b915061321482612cef565b91508190509392505050565b600061322b82612fad565b91506132378284612783565b915081905092915050565b600061324d82612fed565b91506132598284612783565b915081905092915050565b600061326f82613093565b915061327b8284612783565b915081905092915050565b600060208201905061329b60008301846126f3565b92915050565b60006080820190506132b660008301876126f3565b6132c360208301866126f3565b6132d060408301856130d3565b81810360608301526132e28184612711565b905095945050505050565b600060408201905061330260008301856126f3565b61330f60208301846130d3565b9392505050565b600060208201905061332b6000830184612702565b92915050565b6000602082019050818103600083015261334b818461274a565b905092915050565b6000606082019050818103600083015261336d818661274a565b905061337c60208301856130d3565b61338960408301846126f3565b949350505050565b600060208201905081810360008301526133aa81612833565b9050919050565b600060208201905081810360008301526133ca81612899565b9050919050565b600060208201905081810360008301526133ea81612919565b9050919050565b6000602082019050818103600083015261340a8161297f565b9050919050565b6000602082019050818103600083015261342a81612ab1565b9050919050565b6000602082019050818103600083015261344a81612b57565b9050919050565b6000602082019050818103600083015261346a81612bbd565b9050919050565b6000602082019050818103600083015261348a81612c23565b9050919050565b600060208201905081810360008301526134aa81612c89565b9050919050565b600060208201905081810360008301526134ca81612d2f565b9050919050565b600060208201905081810360008301526134ea81612d6f565b9050919050565b6000602082019050818103600083015261350a81612dd5565b9050919050565b6000602082019050818103600083015261352a81612e3b565b9050919050565b6000602082019050818103600083015261354a81612ea1565b9050919050565b6000602082019050818103600083015261356a81612f47565b9050919050565b6000602082019050818103600083015261358a8161302d565b9050919050565b60006020820190506135a660008301846130d3565b92915050565b6000604051905081810181811067ffffffffffffffff821117156135d3576135d2613969565b5b8060405250919050565b600067ffffffffffffffff8211156135f8576135f7613969565b5b601f19601f8301169050602081019050919050565b60008190508160005260206000209050919050565b600081519050919050565b600081519050919050565b600082825260208201905092915050565b600082825260208201905092915050565b600081905092915050565b6000613670826137e4565b915061367b836137e4565b9250827fffffffffffffffffffffffffffffffffffffffffffffffffffffffffffffffff038211156136b0576136af6138dc565b5b828201905092915050565b60006136c6826137e4565b91506136d1836137e4565b9250826136e1576136e061390b565b5b828204905092915050565b60006136f7826137e4565b9150613702836137e4565b9250817fffffffffffffffffffffffffffffffffffffffffffffffffffffffffffffffff048311821515161561373b5761373a6138dc565b5b828202905092915050565b6000613751826137e4565b915061375c836137e4565b92508282101561376f5761376e6138dc565b5b828203905092915050565b6000613785826137c4565b9050919050565b60008115159050919050565b60007fffffffff0000000000000000000000000000000000000000000000000000000082169050919050565b600073ffffffffffffffffffffffffffffffffffffffff82169050919050565b6000819050919050565b82818337600083830152505050565b60005b8381101561381b578082015181840152602081019050613800565b8381111561382a576000848401525b50505050565b6000600282049050600182168061384857607f821691505b6020821081141561385c5761385b61393a565b5b50919050565b600061386d826137e4565b91507fffffffffffffffffffffffffffffffffffffffffffffffffffffffffffffffff8214156138a05761389f6138dc565b5b600182019050919050565b60006138b6826137e4565b91506138c1836137e4565b9250826138d1576138d061390b565b5b828206905092915050565b7f4e487b7100000000000000000000000000000000000000000000000000000000600052601160045260246000fd5b7f4e487b7100000000000000000000000000000000000000000000000000000000600052601260045260246000fd5b7f4e487b7100000000000000000000000000000000000000000000000000000000600052602260045260246000fd5b7f4e487b7100000000000000000000000000000000000000000000000000000000600052604160045260246000fd5b6000601f19601f8301169050919050565b6139b28161377a565b81146139bd57600080fd5b50565b6139c98161378c565b81146139d457600080fd5b50565b6139e081613798565b81146139eb57600080fd5b50565b6139f7816137e4565b8114613a0257600080fd5b5056fe416e204e465420772f20494420257320686173206265656e206d696e74656420746f2025734142434445464748494a4b4c4d4e4f505152535455565758595a6162636465666768696a6b6c6d6e6f707172737475767778797a303132333435363738392b2fa264697066735822122084d31acfdd6b02eb063a5b564cbda3caafda1852b165d9ddd6a258b1f79ddc8064736f6c634300080000333c73766720786d6c6e733d27687474703a2f2f7777772e77332e6f72672f323030302f73766727207072657365727665417370656374526174696f3d27784d696e594d696e206d656574272076696577426f783d273020302033353020333530273e3c7374796c653e2e62617365207b2066696c6c3a2077686974653b20666f6e742d66616d696c793a2073657269663b20666f6e742d73697a653a20323470783b207d3c2f7374796c653e3c726563742077696474683d273130302527206865696768743d2731303025272066696c6c3d27272f3e3c7465787420783d273530252720793d273530252720636c6173733d27626173652720646f6d696e616e742d626173656c696e653d276d6964646c652720746578742d616e63686f723d276d6964646c65273e",
  "linkReferences": {},
  "deployedLinkReferences": {}
}